{
  "contractName": "PetShop",
  "abi": [
    {
      "constant": false,
      "inputs": [
        {
          "name": "pId",
          "type": "uint256"
        },
        {
          "name": "_petType",
          "type": "string"
        },
        {
          "name": "_petName",
          "type": "string"
        },
        {
          "name": "_petAge",
          "type": "uint256"
        }
      ],
      "name": "addPet",
      "outputs": [],
      "payable": false,
      "stateMutability": "nonpayable",
      "type": "function",
      "signature": "0x9de9415a"
    },
    {
      "constant": false,
      "inputs": [
        {
          "name": "pId",
          "type": "uint256"
        },
        {
          "name": "_owner",
          "type": "string"
        }
      ],
      "name": "adopt",
      "outputs": [],
      "payable": false,
      "stateMutability": "nonpayable",
      "type": "function",
      "signature": "0x79d601c1"
    },
    {
      "constant": true,
      "inputs": [],
      "name": "getPetsForAdoption",
      "outputs": [
        {
          "name": "",
          "type": "uint256[]"
        }
      ],
      "payable": false,
      "stateMutability": "view",
      "type": "function",
      "signature": "0x22e936d5"
    },
    {
      "constant": false,
      "inputs": [
        {
          "name": "pId",
          "type": "uint256"
        },
        {
          "name": "unixTimestampNumber",
          "type": "uint256"
        }
      ],
      "name": "recordVetVisit",
      "outputs": [],
      "payable": false,
      "stateMutability": "nonpayable",
      "type": "function",
      "signature": "0xfe99ff54"
    },
    {
      "constant": true,
      "inputs": [
        {
          "name": "pId",
          "type": "uint256"
        }
      ],
      "name": "getFirstVetVisit",
      "outputs": [
        {
          "name": "",
          "type": "uint256"
        }
      ],
      "payable": false,
      "stateMutability": "view",
      "type": "function",
      "signature": "0xcb886055"
    },
    {
      "constant": true,
      "inputs": [
        {
          "name": "pId",
          "type": "uint256"
        }
      ],
      "name": "getVetVisit",
      "outputs": [
        {
          "name": "",
          "type": "uint256[]"
        }
      ],
      "payable": false,
      "stateMutability": "view",
      "type": "function",
      "signature": "0xa84418af"
    },
    {
      "constant": true,
      "inputs": [
        {
          "name": "pId",
          "type": "uint256"
        }
      ],
      "name": "getLastVetVisit",
      "outputs": [
        {
          "name": "",
          "type": "uint256"
        }
      ],
      "payable": false,
      "stateMutability": "view",
      "type": "function",
      "signature": "0x3f06ecad"
    }
  ],
  "bytecode": "0x608060405234801561001057600080fd5b506109d3806100206000396000f3fe608060405260043610610083576000357c0100000000000000000000000000000000000000000000000000000000900463ffffffff16806322e936d5146100885780633f06ecad146100f457806379d601c1146101435780639de9415a14610215578063a84418af14610388578063cb88605514610418578063fe99ff5414610467575b600080fd5b34801561009457600080fd5b5061009d6104ac565b6040518080602001828103825283818151815260200191508051906020019060200280838360005b838110156100e05780820151818401526020810190506100c5565b505050509050019250505060405180910390f35b34801561010057600080fd5b5061012d6004803603602081101561011757600080fd5b81019080803590602001909291905050506104bb565b6040518082815260200191505060405180910390f35b34801561014f57600080fd5b506102136004803603604081101561016657600080fd5b81019080803590602001909291908035906020019064010000000081111561018d57600080fd5b82018360208201111561019f57600080fd5b803590602001918460018302840111640100000000831117156101c157600080fd5b91908080601f016020809104026020016040519081016040528093929190818152602001838380828437600081840152601f19601f82011690508083019250505050505050919291929050505061050c565b005b34801561022157600080fd5b506103866004803603608081101561023857600080fd5b81019080803590602001909291908035906020019064010000000081111561025f57600080fd5b82018360208201111561027157600080fd5b8035906020019184600183028401116401000000008311171561029357600080fd5b91908080601f016020809104026020016040519081016040528093929190818152602001838380828437600081840152601f19601f820116905080830192505050505050509192919290803590602001906401000000008111156102f657600080fd5b82018360208201111561030857600080fd5b8035906020019184600183028401116401000000008311171561032a57600080fd5b91908080601f016020809104026020016040519081016040528093929190818152602001838380828437600081840152601f19601f82011690508083019250505050505050919291929080359060200190929190505050610599565b005b34801561039457600080fd5b506103c1600480360360208110156103ab57600080fd5b8101908080359060200190929190505050610698565b6040518080602001828103825283818151815260200191508051906020019060200280838360005b838110156104045780820151818401526020810190506103e9565b505050509050019250505060405180910390f35b34801561042457600080fd5b506104516004803603602081101561043b57600080fd5b8101908080359060200190929190505050610705565b6040518082815260200191505060405180910390f35b34801561047357600080fd5b506104aa6004803603604081101561048a57600080fd5b81019080803590602001909291908035906020019092919050505061073c565b005b60606104b6610782565b905090565b6000806000838152602001908152602001600020600501600160008085815260200190815260200160002060050180549050038154811015156104fa57fe5b90600052602060002001549050919050565b806000808481526020019081526020016000206004019080519060200190610535929190610902565b506040805190810160405280600781526020017f41646f70746564000000000000000000000000000000000000000000000000008152506000808481526020019081526020016000206003019080519060200190610594929190610902565b505050565b8160008086815260200190815260200160002060000190805190602001906105c2929190610902565b508260008086815260200190815260200160002060010190805190602001906105ec929190610902565b5080600080868152602001908152602001600020600201819055506040805190810160405280600b81526020017f466f7241646f7074696f6e0000000000000000000000000000000000000000008152506000808681526020019081526020016000206003019080519060200190610665929190610902565b50600184908060018154018082558091505090600182039060005260206000200160009091929091909150555050505050565b60606000808381526020019081526020016000206005018054806020026020016040519081016040528092919081815260200182805480156106f957602002820191906000526020600020905b8154815260200190600101908083116106e5575b50505050509050919050565b6000806000838152602001908152602001600020600501600081548110151561072a57fe5b90600052602060002001549050919050565b4290506000808381526020019081526020016000206005018190806001815401808255809150509060018203906000526020600020016000909192909190915055505050565b6060806001805490506040519080825280602002602001820160405280156107b95781602001602082028038833980820191505090505b509050600080905060008090505b6001805490508110156108f9576040805190810160405280600b81526020017f466f7241646f7074696f6e0000000000000000000000000000000000000000008152508051906020012060008060018481548110151561082357fe5b90600052602060002001548152602001908152602001600020600301604051808280546001816001161561010002031660029004801561089a5780601f1061087857610100808354040283529182019161089a565b820191906000526020600020905b815481529060010190602001808311610886575b5050915050604051809103902014156108ec576001818154811015156108bc57fe5b906000526020600020015483838151811015156108d557fe5b906020019060200201818152505081806001019250505b80806001019150506107c7565b50819250505090565b828054600181600116156101000203166002900490600052602060002090601f016020900481019282601f1061094357805160ff1916838001178555610971565b82800160010185558215610971579182015b82811115610970578251825591602001919060010190610955565b5b50905061097e9190610982565b5090565b6109a491905b808211156109a0576000816000905550600101610988565b5090565b9056fea165627a7a723058206da2ed28ffed7f1138c26f28a6c2c3503bf90affcacc16ace9fe6c825f878cd80029",
  "source": "pragma solidity ^0.5.0;\n\ncontract PetShop {\n    struct Pets{\n        string petName;\n        string petType;\n        uint petAge;\n        string status;\n        string owner;\n        uint[] visitedTimeStamp;\n        \n    }\n    mapping(uint => Pets)Pet;\n    uint[] PetIds;\n    uint[] adoptedPetIds;\n\n    // This function is to add pet to the list of pets with status as ForAdoption\n    function addPet(uint pId, string memory _petType,string memory _petName, uint _petAge) public {\n        Pet[pId].petName = _petName;\n        Pet[pId].petType = _petType;\n        Pet[pId].petAge = _petAge;\n        Pet[pId].status = \"ForAdoption\";\n        PetIds.push(pId);\n    }\n\n    // This function is to change the status of pet to adopted along with owner \n    function adopt(uint pId, string memory _owner ) public {\n        Pet[pId].owner = _owner;\n        Pet[pId].status = \"Adopted\";\n    }\n\n    function adoptedPets() internal view returns(uint[] memory) {\n        uint[] memory adoptedPetId = new uint[](PetIds.length);\n        uint count = 0;\n        for(uint i = 0; i<PetIds.length; i++){\n            if(keccak256(bytes(Pet[PetIds[i]].status)) == keccak256(bytes(\"ForAdoption\"))){\n                adoptedPetId[count] = PetIds[i];\n                count++;\n            }\n        }\n        return adoptedPetId;\n    }\n    //This function returns the array of petIds whose status is For Adoption\n    function getPetsForAdoption()public view returns(uint[] memory) {\n        return adoptedPets();\n    }\n\n    //This function returns the records of all visits of a pet to a veterinary doctor \n    function recordVetVisit(uint pId, uint unixTimestampNumber) public {\n        unixTimestampNumber = now;\n        Pet[pId].visitedTimeStamp.push(unixTimestampNumber); \n    }\n\n    // This function is to return the first vet visit of a pet based on petId\n    function getFirstVetVisit(uint pId)public view returns (uint) {\n        return Pet[pId].visitedTimeStamp[0];\n    }\n\n    // This function get all the visits of a pet to the vet \n    function getVetVisit(uint pId)public view returns (uint[] memory){\n        return Pet[pId].visitedTimeStamp;\n        \n    }\n\n    // This function is to return the last vet visit of a pet based on petId\n    function getLastVetVisit(uint pId)public view returns (uint){\n        return Pet[pId].visitedTimeStamp[Pet[pId].visitedTimeStamp.length-1];\n        \n    }\n}\n",
  "sourcePath": "/home/sindhu/assaignment/Petshop/contracts/PetShop.sol",
  "compiler": {
    "name": "solc",
    "version": "0.5.0+commit.1d4f565a.Emscripten.clang"
  },
  "schemaVersion": "3.0.1",
  "updatedAt": "2019-02-11T19:02:08.782Z",
  "devdoc": {
    "methods": {}
  },
  "userdoc": {
    "methods": {}
  }
}